{
  "_format": "hh-sol-artifact-1",
  "contractName": "MyNFT",
  "sourceName": "contracts/MyNFT.sol",
  "abi": [
    {
      "inputs": [
        {
          "internalType": "address",
          "name": "initialOwner",
          "type": "address"
        }
      ],
      "stateMutability": "nonpayable",
      "type": "constructor"
    },
    {
      "inputs": [
        {
          "internalType": "address",
          "name": "sender",
          "type": "address"
        },
        {
          "internalType": "uint256",
          "name": "tokenId",
          "type": "uint256"
        },
        {
          "internalType": "address",
          "name": "owner",
          "type": "address"
        }
      ],
      "name": "ERC721IncorrectOwner",
      "type": "error"
    },
    {
      "inputs": [
        {
          "internalType": "address",
          "name": "operator",
          "type": "address"
        },
        {
          "internalType": "uint256",
          "name": "tokenId",
          "type": "uint256"
        }
      ],
      "name": "ERC721InsufficientApproval",
      "type": "error"
    },
    {
      "inputs": [
        {
          "internalType": "address",
          "name": "approver",
          "type": "address"
        }
      ],
      "name": "ERC721InvalidApprover",
      "type": "error"
    },
    {
      "inputs": [
        {
          "internalType": "address",
          "name": "operator",
          "type": "address"
        }
      ],
      "name": "ERC721InvalidOperator",
      "type": "error"
    },
    {
      "inputs": [
        {
          "internalType": "address",
          "name": "owner",
          "type": "address"
        }
      ],
      "name": "ERC721InvalidOwner",
      "type": "error"
    },
    {
      "inputs": [
        {
          "internalType": "address",
          "name": "receiver",
          "type": "address"
        }
      ],
      "name": "ERC721InvalidReceiver",
      "type": "error"
    },
    {
      "inputs": [
        {
          "internalType": "address",
          "name": "sender",
          "type": "address"
        }
      ],
      "name": "ERC721InvalidSender",
      "type": "error"
    },
    {
      "inputs": [
        {
          "internalType": "uint256",
          "name": "tokenId",
          "type": "uint256"
        }
      ],
      "name": "ERC721NonexistentToken",
      "type": "error"
    },
    {
      "inputs": [
        {
          "internalType": "address",
          "name": "owner",
          "type": "address"
        }
      ],
      "name": "OwnableInvalidOwner",
      "type": "error"
    },
    {
      "inputs": [
        {
          "internalType": "address",
          "name": "account",
          "type": "address"
        }
      ],
      "name": "OwnableUnauthorizedAccount",
      "type": "error"
    },
    {
      "anonymous": false,
      "inputs": [
        {
          "indexed": true,
          "internalType": "address",
          "name": "owner",
          "type": "address"
        },
        {
          "indexed": true,
          "internalType": "address",
          "name": "approved",
          "type": "address"
        },
        {
          "indexed": true,
          "internalType": "uint256",
          "name": "tokenId",
          "type": "uint256"
        }
      ],
      "name": "Approval",
      "type": "event"
    },
    {
      "anonymous": false,
      "inputs": [
        {
          "indexed": true,
          "internalType": "address",
          "name": "owner",
          "type": "address"
        },
        {
          "indexed": true,
          "internalType": "address",
          "name": "operator",
          "type": "address"
        },
        {
          "indexed": false,
          "internalType": "bool",
          "name": "approved",
          "type": "bool"
        }
      ],
      "name": "ApprovalForAll",
      "type": "event"
    },
    {
      "anonymous": false,
      "inputs": [
        {
          "indexed": false,
          "internalType": "uint256",
          "name": "_fromTokenId",
          "type": "uint256"
        },
        {
          "indexed": false,
          "internalType": "uint256",
          "name": "_toTokenId",
          "type": "uint256"
        }
      ],
      "name": "BatchMetadataUpdate",
      "type": "event"
    },
    {
      "anonymous": false,
      "inputs": [
        {
          "indexed": false,
          "internalType": "uint256",
          "name": "_tokenId",
          "type": "uint256"
        }
      ],
      "name": "MetadataUpdate",
      "type": "event"
    },
    {
      "anonymous": false,
      "inputs": [
        {
          "indexed": true,
          "internalType": "address",
          "name": "previousOwner",
          "type": "address"
        },
        {
          "indexed": true,
          "internalType": "address",
          "name": "newOwner",
          "type": "address"
        }
      ],
      "name": "OwnershipTransferred",
      "type": "event"
    },
    {
      "anonymous": false,
      "inputs": [
        {
          "indexed": true,
          "internalType": "address",
          "name": "from",
          "type": "address"
        },
        {
          "indexed": true,
          "internalType": "address",
          "name": "to",
          "type": "address"
        },
        {
          "indexed": true,
          "internalType": "uint256",
          "name": "tokenId",
          "type": "uint256"
        }
      ],
      "name": "Transfer",
      "type": "event"
    },
    {
      "inputs": [
        {
          "internalType": "address",
          "name": "to",
          "type": "address"
        },
        {
          "internalType": "uint256",
          "name": "tokenId",
          "type": "uint256"
        }
      ],
      "name": "approve",
      "outputs": [],
      "stateMutability": "nonpayable",
      "type": "function"
    },
    {
      "inputs": [
        {
          "internalType": "address",
          "name": "owner",
          "type": "address"
        }
      ],
      "name": "balanceOf",
      "outputs": [
        {
          "internalType": "uint256",
          "name": "",
          "type": "uint256"
        }
      ],
      "stateMutability": "view",
      "type": "function"
    },
    {
      "inputs": [
        {
          "internalType": "uint256",
          "name": "tokenId",
          "type": "uint256"
        }
      ],
      "name": "getApproved",
      "outputs": [
        {
          "internalType": "address",
          "name": "",
          "type": "address"
        }
      ],
      "stateMutability": "view",
      "type": "function"
    },
    {
      "inputs": [
        {
          "internalType": "address",
          "name": "owner",
          "type": "address"
        },
        {
          "internalType": "address",
          "name": "operator",
          "type": "address"
        }
      ],
      "name": "isApprovedForAll",
      "outputs": [
        {
          "internalType": "bool",
          "name": "",
          "type": "bool"
        }
      ],
      "stateMutability": "view",
      "type": "function"
    },
    {
      "inputs": [
        {
          "internalType": "string",
          "name": "uri",
          "type": "string"
        }
      ],
      "name": "isContentOwned",
      "outputs": [
        {
          "internalType": "bool",
          "name": "",
          "type": "bool"
        }
      ],
      "stateMutability": "view",
      "type": "function"
    },
    {
      "inputs": [],
      "name": "name",
      "outputs": [
        {
          "internalType": "string",
          "name": "",
          "type": "string"
        }
      ],
      "stateMutability": "view",
      "type": "function"
    },
    {
      "inputs": [],
      "name": "owner",
      "outputs": [
        {
          "internalType": "address",
          "name": "",
          "type": "address"
        }
      ],
      "stateMutability": "view",
      "type": "function"
    },
    {
      "inputs": [
        {
          "internalType": "uint256",
          "name": "tokenId",
          "type": "uint256"
        }
      ],
      "name": "ownerOf",
      "outputs": [
        {
          "internalType": "address",
          "name": "",
          "type": "address"
        }
      ],
      "stateMutability": "view",
      "type": "function"
    },
    {
      "inputs": [
        {
          "internalType": "address",
          "name": "recipient",
          "type": "address"
        },
        {
          "internalType": "string",
          "name": "metadataURI",
          "type": "string"
        }
      ],
      "name": "payToMint",
      "outputs": [
        {
          "internalType": "uint256",
          "name": "",
          "type": "uint256"
        }
      ],
      "stateMutability": "payable",
      "type": "function"
    },
    {
      "inputs": [],
      "name": "renounceOwnership",
      "outputs": [],
      "stateMutability": "nonpayable",
      "type": "function"
    },
    {
      "inputs": [
        {
          "internalType": "address",
          "name": "to",
          "type": "address"
        },
        {
          "internalType": "string",
          "name": "uri",
          "type": "string"
        }
      ],
      "name": "safeMint",
      "outputs": [
        {
          "internalType": "uint256",
          "name": "",
          "type": "uint256"
        }
      ],
      "stateMutability": "nonpayable",
      "type": "function"
    },
    {
      "inputs": [
        {
          "internalType": "address",
          "name": "from",
          "type": "address"
        },
        {
          "internalType": "address",
          "name": "to",
          "type": "address"
        },
        {
          "internalType": "uint256",
          "name": "tokenId",
          "type": "uint256"
        }
      ],
      "name": "safeTransferFrom",
      "outputs": [],
      "stateMutability": "nonpayable",
      "type": "function"
    },
    {
      "inputs": [
        {
          "internalType": "address",
          "name": "from",
          "type": "address"
        },
        {
          "internalType": "address",
          "name": "to",
          "type": "address"
        },
        {
          "internalType": "uint256",
          "name": "tokenId",
          "type": "uint256"
        },
        {
          "internalType": "bytes",
          "name": "data",
          "type": "bytes"
        }
      ],
      "name": "safeTransferFrom",
      "outputs": [],
      "stateMutability": "nonpayable",
      "type": "function"
    },
    {
      "inputs": [
        {
          "internalType": "address",
          "name": "operator",
          "type": "address"
        },
        {
          "internalType": "bool",
          "name": "approved",
          "type": "bool"
        }
      ],
      "name": "setApprovalForAll",
      "outputs": [],
      "stateMutability": "nonpayable",
      "type": "function"
    },
    {
      "inputs": [
        {
          "internalType": "bytes4",
          "name": "interfaceId",
          "type": "bytes4"
        }
      ],
      "name": "supportsInterface",
      "outputs": [
        {
          "internalType": "bool",
          "name": "",
          "type": "bool"
        }
      ],
      "stateMutability": "view",
      "type": "function"
    },
    {
      "inputs": [],
      "name": "symbol",
      "outputs": [
        {
          "internalType": "string",
          "name": "",
          "type": "string"
        }
      ],
      "stateMutability": "view",
      "type": "function"
    },
    {
      "inputs": [
        {
          "internalType": "uint256",
          "name": "tokenId",
          "type": "uint256"
        }
      ],
      "name": "tokenURI",
      "outputs": [
        {
          "internalType": "string",
          "name": "",
          "type": "string"
        }
      ],
      "stateMutability": "view",
      "type": "function"
    },
    {
      "inputs": [
        {
          "internalType": "address",
          "name": "from",
          "type": "address"
        },
        {
          "internalType": "address",
          "name": "to",
          "type": "address"
        },
        {
          "internalType": "uint256",
          "name": "tokenId",
          "type": "uint256"
        }
      ],
      "name": "transferFrom",
      "outputs": [],
      "stateMutability": "nonpayable",
      "type": "function"
    },
    {
      "inputs": [
        {
          "internalType": "address",
          "name": "newOwner",
          "type": "address"
        }
      ],
      "name": "transferOwnership",
      "outputs": [],
      "stateMutability": "nonpayable",
      "type": "function"
    }
  ],
  "bytecode": "0x60806040523480156200001157600080fd5b50604051620030ef380380620030ef833981810160405281019062000037919062000288565b806040518060400160405280600381526020017f6e667400000000000000000000000000000000000000000000000000000000008152506040518060400160405280600381526020017f4e465400000000000000000000000000000000000000000000000000000000008152508160009081620000b5919062000534565b508060019081620000c7919062000534565b505050600073ffffffffffffffffffffffffffffffffffffffff168173ffffffffffffffffffffffffffffffffffffffff16036200013f5760006040517f1e4fbdf70000000000000000000000000000000000000000000000000000000081526004016200013691906200062c565b60405180910390fd5b62000150816200015860201b60201c565b505062000649565b6000600760009054906101000a900473ffffffffffffffffffffffffffffffffffffffff16905081600760006101000a81548173ffffffffffffffffffffffffffffffffffffffff021916908373ffffffffffffffffffffffffffffffffffffffff1602179055508173ffffffffffffffffffffffffffffffffffffffff168173ffffffffffffffffffffffffffffffffffffffff167f8be0079c531659141344cd1fd0a4f28419497f9722a3daafe3b4186f6b6457e060405160405180910390a35050565b600080fd5b600073ffffffffffffffffffffffffffffffffffffffff82169050919050565b6000620002508262000223565b9050919050565b620002628162000243565b81146200026e57600080fd5b50565b600081519050620002828162000257565b92915050565b600060208284031215620002a157620002a06200021e565b5b6000620002b18482850162000271565b91505092915050565b600081519050919050565b7f4e487b7100000000000000000000000000000000000000000000000000000000600052604160045260246000fd5b7f4e487b7100000000000000000000000000000000000000000000000000000000600052602260045260246000fd5b600060028204905060018216806200033c57607f821691505b602082108103620003525762000351620002f4565b5b50919050565b60008190508160005260206000209050919050565b60006020601f8301049050919050565b600082821b905092915050565b600060088302620003bc7fffffffffffffffffffffffffffffffffffffffffffffffffffffffffffffffff826200037d565b620003c886836200037d565b95508019841693508086168417925050509392505050565b6000819050919050565b6000819050919050565b6000620004156200040f6200040984620003e0565b620003ea565b620003e0565b9050919050565b6000819050919050565b6200043183620003f4565b6200044962000440826200041c565b8484546200038a565b825550505050565b600090565b6200046062000451565b6200046d81848462000426565b505050565b5b8181101562000495576200048960008262000456565b60018101905062000473565b5050565b601f821115620004e457620004ae8162000358565b620004b9846200036d565b81016020851015620004c9578190505b620004e1620004d8856200036d565b83018262000472565b50505b505050565b600082821c905092915050565b60006200050960001984600802620004e9565b1980831691505092915050565b6000620005248383620004f6565b9150826002028217905092915050565b6200053f82620002ba565b67ffffffffffffffff8111156200055b576200055a620002c5565b5b62000567825462000323565b6200057482828562000499565b600060209050601f831160018114620005ac576000841562000597578287015190505b620005a3858262000516565b86555062000613565b601f198416620005bc8662000358565b60005b82811015620005e657848901518255600182019150602085019450602081019050620005bf565b8683101562000606578489015162000602601f891682620004f6565b8355505b6001600288020188555050505b505050505050565b620006268162000243565b82525050565b60006020820190506200064360008301846200061b565b92915050565b612a9680620006596000396000f3fe6080604052600436106101145760003560e01c8063715018a6116100a0578063b88d4fde11610064578063b88d4fde146103b6578063c87b56dd146103df578063d204c45e1461041c578063e985e9c514610459578063f2fde38b1461049657610114565b8063715018a6146102e35780638da5cb5b146102fa57806395d89b41146103255780639f1cabc614610350578063a22cb4651461038d57610114565b806323b872dd116100e757806323b872dd146101e757806342842e0e14610210578063615fd9e2146102395780636352211e1461026957806370a08231146102a657610114565b806301ffc9a71461011957806306fdde0314610156578063081812fc14610181578063095ea7b3146101be575b600080fd5b34801561012557600080fd5b50610140600480360381019061013b9190611db6565b6104bf565b60405161014d9190611dfe565b60405180910390f35b34801561016257600080fd5b5061016b6104d1565b6040516101789190611ea9565b60405180910390f35b34801561018d57600080fd5b506101a860048036038101906101a39190611f01565b610563565b6040516101b59190611f6f565b60405180910390f35b3480156101ca57600080fd5b506101e560048036038101906101e09190611fb6565b61057f565b005b3480156101f357600080fd5b5061020e60048036038101906102099190611ff6565b610595565b005b34801561021c57600080fd5b5061023760048036038101906102329190611ff6565b610697565b005b610253600480360381019061024e919061217e565b6106b7565b60405161026091906121e9565b60405180910390f35b34801561027557600080fd5b50610290600480360381019061028b9190611f01565b6107e4565b60405161029d9190611f6f565b60405180910390f35b3480156102b257600080fd5b506102cd60048036038101906102c89190612204565b6107f6565b6040516102da91906121e9565b60405180910390f35b3480156102ef57600080fd5b506102f86108b0565b005b34801561030657600080fd5b5061030f6108c4565b60405161031c9190611f6f565b60405180910390f35b34801561033157600080fd5b5061033a6108ee565b6040516103479190611ea9565b60405180910390f35b34801561035c57600080fd5b5061037760048036038101906103729190612231565b610980565b6040516103849190611dfe565b60405180910390f35b34801561039957600080fd5b506103b460048036038101906103af91906122a6565b6109bb565b005b3480156103c257600080fd5b506103dd60048036038101906103d89190612387565b6109d1565b005b3480156103eb57600080fd5b5061040660048036038101906104019190611f01565b6109f6565b6040516104139190611ea9565b60405180910390f35b34801561042857600080fd5b50610443600480360381019061043e919061217e565b610a08565b60405161045091906121e9565b60405180910390f35b34801561046557600080fd5b50610480600480360381019061047b919061240a565b610a4b565b60405161048d9190611dfe565b60405180910390f35b3480156104a257600080fd5b506104bd60048036038101906104b89190612204565b610adf565b005b60006104ca82610b65565b9050919050565b6060600080546104e090612479565b80601f016020809104026020016040519081016040528092919081815260200182805461050c90612479565b80156105595780601f1061052e57610100808354040283529160200191610559565b820191906000526020600020905b81548152906001019060200180831161053c57829003601f168201915b5050505050905090565b600061056e82610bc6565b5061057882610c4e565b9050919050565b610591828261058c610c8b565b610c93565b5050565b600073ffffffffffffffffffffffffffffffffffffffff168273ffffffffffffffffffffffffffffffffffffffff16036106075760006040517f64a0ae920000000000000000000000000000000000000000000000000000000081526004016105fe9190611f6f565b60405180910390fd5b600061061b8383610616610c8b565b610ca5565b90508373ffffffffffffffffffffffffffffffffffffffff168173ffffffffffffffffffffffffffffffffffffffff1614610691578382826040517f64283d7b000000000000000000000000000000000000000000000000000000008152600401610688939291906124aa565b60405180910390fd5b50505050565b6106b2838383604051806020016040528060008152506109d1565b505050565b600060016009836040516106cb919061251d565b908152602001604051809103902060009054906101000a900460ff1660ff160361072a576040517f08c379a000000000000000000000000000000000000000000000000000000000815260040161072190612580565b60405180910390fd5b655af3107a4000341015610773576040517f08c379a000000000000000000000000000000000000000000000000000000000815260040161076a906125ec565b60405180910390fd5b6000600860008154809291906107889061263b565b91905055905060016009846040516107a0919061251d565b908152602001604051809103902060006101000a81548160ff021916908360ff1602179055506107d08482610ebf565b6107da8184610fb8565b8091505092915050565b60006107ef82610bc6565b9050919050565b60008073ffffffffffffffffffffffffffffffffffffffff168273ffffffffffffffffffffffffffffffffffffffff16036108695760006040517f89c62b640000000000000000000000000000000000000000000000000000000081526004016108609190611f6f565b60405180910390fd5b600360008373ffffffffffffffffffffffffffffffffffffffff1673ffffffffffffffffffffffffffffffffffffffff168152602001908152602001600020549050919050565b6108b8611014565b6108c2600061109b565b565b6000600760009054906101000a900473ffffffffffffffffffffffffffffffffffffffff16905090565b6060600180546108fd90612479565b80601f016020809104026020016040519081016040528092919081815260200182805461092990612479565b80156109765780601f1061094b57610100808354040283529160200191610976565b820191906000526020600020905b81548152906001019060200180831161095957829003601f168201915b5050505050905090565b60006001600983604051610994919061251d565b908152602001604051809103902060009054906101000a900460ff1660ff16149050919050565b6109cd6109c6610c8b565b8383611161565b5050565b6109dc848484610595565b6109f06109e7610c8b565b858585856112d0565b50505050565b6060610a0182611481565b9050919050565b6000610a12611014565b600060086000815480929190610a279061263b565b919050559050610a378482611594565b610a418184610fb8565b8091505092915050565b6000600560008473ffffffffffffffffffffffffffffffffffffffff1673ffffffffffffffffffffffffffffffffffffffff16815260200190815260200160002060008373ffffffffffffffffffffffffffffffffffffffff1673ffffffffffffffffffffffffffffffffffffffff16815260200190815260200160002060009054906101000a900460ff16905092915050565b610ae7611014565b600073ffffffffffffffffffffffffffffffffffffffff168173ffffffffffffffffffffffffffffffffffffffff1603610b595760006040517f1e4fbdf7000000000000000000000000000000000000000000000000000000008152600401610b509190611f6f565b60405180910390fd5b610b628161109b565b50565b6000634906490660e01b7bffffffffffffffffffffffffffffffffffffffffffffffffffffffff1916827bffffffffffffffffffffffffffffffffffffffffffffffffffffffff19161480610bbf5750610bbe826115b2565b5b9050919050565b600080610bd283611694565b9050600073ffffffffffffffffffffffffffffffffffffffff168173ffffffffffffffffffffffffffffffffffffffff1603610c4557826040517f7e273289000000000000000000000000000000000000000000000000000000008152600401610c3c91906121e9565b60405180910390fd5b80915050919050565b60006004600083815260200190815260200160002060009054906101000a900473ffffffffffffffffffffffffffffffffffffffff169050919050565b600033905090565b610ca083838360016116d1565b505050565b600080610cb184611694565b9050600073ffffffffffffffffffffffffffffffffffffffff168373ffffffffffffffffffffffffffffffffffffffff1614610cf357610cf2818486611896565b5b600073ffffffffffffffffffffffffffffffffffffffff168173ffffffffffffffffffffffffffffffffffffffff1614610d8457610d356000856000806116d1565b6001600360008373ffffffffffffffffffffffffffffffffffffffff1673ffffffffffffffffffffffffffffffffffffffff168152602001908152602001600020600082825403925050819055505b600073ffffffffffffffffffffffffffffffffffffffff168573ffffffffffffffffffffffffffffffffffffffff1614610e07576001600360008773ffffffffffffffffffffffffffffffffffffffff1673ffffffffffffffffffffffffffffffffffffffff168152602001908152602001600020600082825401925050819055505b846002600086815260200190815260200160002060006101000a81548173ffffffffffffffffffffffffffffffffffffffff021916908373ffffffffffffffffffffffffffffffffffffffff160217905550838573ffffffffffffffffffffffffffffffffffffffff168273ffffffffffffffffffffffffffffffffffffffff167fddf252ad1be2c89b69c2b068fc378daa952ba7f163c4a11628f55a4df523b3ef60405160405180910390a4809150509392505050565b600073ffffffffffffffffffffffffffffffffffffffff168273ffffffffffffffffffffffffffffffffffffffff1603610f315760006040517f64a0ae92000000000000000000000000000000000000000000000000000000008152600401610f289190611f6f565b60405180910390fd5b6000610f3f83836000610ca5565b9050600073ffffffffffffffffffffffffffffffffffffffff168173ffffffffffffffffffffffffffffffffffffffff1614610fb35760006040517f73c6ac6e000000000000000000000000000000000000000000000000000000008152600401610faa9190611f6f565b60405180910390fd5b505050565b80600660008481526020019081526020016000209081610fd8919061282f565b507ff8e1a15aba9398e019f0b49df1a4fde98ee17ae345cb5f6b5e2c27f5033e8ce78260405161100891906121e9565b60405180910390a15050565b61101c610c8b565b73ffffffffffffffffffffffffffffffffffffffff1661103a6108c4565b73ffffffffffffffffffffffffffffffffffffffff16146110995761105d610c8b565b6040517f118cdaa70000000000000000000000000000000000000000000000000000000081526004016110909190611f6f565b60405180910390fd5b565b6000600760009054906101000a900473ffffffffffffffffffffffffffffffffffffffff16905081600760006101000a81548173ffffffffffffffffffffffffffffffffffffffff021916908373ffffffffffffffffffffffffffffffffffffffff1602179055508173ffffffffffffffffffffffffffffffffffffffff168173ffffffffffffffffffffffffffffffffffffffff167f8be0079c531659141344cd1fd0a4f28419497f9722a3daafe3b4186f6b6457e060405160405180910390a35050565b600073ffffffffffffffffffffffffffffffffffffffff168273ffffffffffffffffffffffffffffffffffffffff16036111d257816040517f5b08ba180000000000000000000000000000000000000000000000000000000081526004016111c99190611f6f565b60405180910390fd5b80600560008573ffffffffffffffffffffffffffffffffffffffff1673ffffffffffffffffffffffffffffffffffffffff16815260200190815260200160002060008473ffffffffffffffffffffffffffffffffffffffff1673ffffffffffffffffffffffffffffffffffffffff16815260200190815260200160002060006101000a81548160ff0219169083151502179055508173ffffffffffffffffffffffffffffffffffffffff168373ffffffffffffffffffffffffffffffffffffffff167f17307eab39ab6107e8899845ad3d59bd9653f200f220920489ca2b5937696c31836040516112c39190611dfe565b60405180910390a3505050565b60008373ffffffffffffffffffffffffffffffffffffffff163b111561147a578273ffffffffffffffffffffffffffffffffffffffff1663150b7a02868685856040518563ffffffff1660e01b815260040161132f9493929190612956565b6020604051808303816000875af192505050801561136b57506040513d601f19601f8201168201806040525081019061136891906129b7565b60015b6113ef573d806000811461139b576040519150601f19603f3d011682016040523d82523d6000602084013e6113a0565b606091505b5060008151036113e757836040517f64a0ae920000000000000000000000000000000000000000000000000000000081526004016113de9190611f6f565b60405180910390fd5b805181602001fd5b63150b7a0260e01b7bffffffffffffffffffffffffffffffffffffffffffffffffffffffff1916817bffffffffffffffffffffffffffffffffffffffffffffffffffffffff19161461147857836040517f64a0ae9200000000000000000000000000000000000000000000000000000000815260040161146f9190611f6f565b60405180910390fd5b505b5050505050565b606061148c82610bc6565b5060006006600084815260200190815260200160002080546114ad90612479565b80601f01602080910402602001604051908101604052809291908181526020018280546114d990612479565b80156115265780601f106114fb57610100808354040283529160200191611526565b820191906000526020600020905b81548152906001019060200180831161150957829003601f168201915b50505050509050600061153761195a565b9050600081510361154c57819250505061158f565b6000825111156115815780826040516020016115699291906129e4565b6040516020818303038152906040529250505061158f565b61158a84611971565b925050505b919050565b6115ae8282604051806020016040528060008152506119da565b5050565b60007f80ac58cd000000000000000000000000000000000000000000000000000000007bffffffffffffffffffffffffffffffffffffffffffffffffffffffff1916827bffffffffffffffffffffffffffffffffffffffffffffffffffffffff1916148061167d57507f5b5e139f000000000000000000000000000000000000000000000000000000007bffffffffffffffffffffffffffffffffffffffffffffffffffffffff1916827bffffffffffffffffffffffffffffffffffffffffffffffffffffffff1916145b8061168d575061168c826119fe565b5b9050919050565b60006002600083815260200190815260200160002060009054906101000a900473ffffffffffffffffffffffffffffffffffffffff169050919050565b808061170a5750600073ffffffffffffffffffffffffffffffffffffffff168273ffffffffffffffffffffffffffffffffffffffff1614155b1561183e57600061171a84610bc6565b9050600073ffffffffffffffffffffffffffffffffffffffff168373ffffffffffffffffffffffffffffffffffffffff161415801561178557508273ffffffffffffffffffffffffffffffffffffffff168173ffffffffffffffffffffffffffffffffffffffff1614155b801561179857506117968184610a4b565b155b156117da57826040517fa9fbf51f0000000000000000000000000000000000000000000000000000000081526004016117d19190611f6f565b60405180910390fd5b811561183c57838573ffffffffffffffffffffffffffffffffffffffff168273ffffffffffffffffffffffffffffffffffffffff167f8c5be1e5ebec7d5bd14f71427d1e84f3dd0314c0f7b2291e5b200ac8c7c3b92560405160405180910390a45b505b836004600085815260200190815260200160002060006101000a81548173ffffffffffffffffffffffffffffffffffffffff021916908373ffffffffffffffffffffffffffffffffffffffff16021790555050505050565b6118a1838383611a68565b61195557600073ffffffffffffffffffffffffffffffffffffffff168373ffffffffffffffffffffffffffffffffffffffff160361191657806040517f7e27328900000000000000000000000000000000000000000000000000000000815260040161190d91906121e9565b60405180910390fd5b81816040517f177e802f00000000000000000000000000000000000000000000000000000000815260040161194c929190612a08565b60405180910390fd5b505050565b606060405180602001604052806000815250905090565b606061197c82610bc6565b50600061198761195a565b905060008151116119a757604051806020016040528060008152506119d2565b806119b184611b29565b6040516020016119c29291906129e4565b6040516020818303038152906040525b915050919050565b6119e48383610ebf565b6119f96119ef610c8b565b60008585856112d0565b505050565b60007f01ffc9a7000000000000000000000000000000000000000000000000000000007bffffffffffffffffffffffffffffffffffffffffffffffffffffffff1916827bffffffffffffffffffffffffffffffffffffffffffffffffffffffff1916149050919050565b60008073ffffffffffffffffffffffffffffffffffffffff168373ffffffffffffffffffffffffffffffffffffffff1614158015611b2057508273ffffffffffffffffffffffffffffffffffffffff168473ffffffffffffffffffffffffffffffffffffffff161480611ae15750611ae08484610a4b565b5b80611b1f57508273ffffffffffffffffffffffffffffffffffffffff16611b0783610c4e565b73ffffffffffffffffffffffffffffffffffffffff16145b5b90509392505050565b606060006001611b3884611bf7565b01905060008167ffffffffffffffff811115611b5757611b56612053565b5b6040519080825280601f01601f191660200182016040528015611b895781602001600182028036833780820191505090505b509050600082602001820190505b600115611bec578080600190039150507f3031323334353637383961626364656600000000000000000000000000000000600a86061a8153600a8581611be057611bdf612a31565b5b04945060008503611b97575b819350505050919050565b600080600090507a184f03e93ff9f4daa797ed6e38ed64bf6a1f0100000000000000008310611c55577a184f03e93ff9f4daa797ed6e38ed64bf6a1f0100000000000000008381611c4b57611c4a612a31565b5b0492506040810190505b6d04ee2d6d415b85acef81000000008310611c92576d04ee2d6d415b85acef81000000008381611c8857611c87612a31565b5b0492506020810190505b662386f26fc100008310611cc157662386f26fc100008381611cb757611cb6612a31565b5b0492506010810190505b6305f5e1008310611cea576305f5e1008381611ce057611cdf612a31565b5b0492506008810190505b6127108310611d0f576127108381611d0557611d04612a31565b5b0492506004810190505b60648310611d325760648381611d2857611d27612a31565b5b0492506002810190505b600a8310611d41576001810190505b80915050919050565b6000604051905090565b600080fd5b600080fd5b60007fffffffff0000000000000000000000000000000000000000000000000000000082169050919050565b611d9381611d5e565b8114611d9e57600080fd5b50565b600081359050611db081611d8a565b92915050565b600060208284031215611dcc57611dcb611d54565b5b6000611dda84828501611da1565b91505092915050565b60008115159050919050565b611df881611de3565b82525050565b6000602082019050611e136000830184611def565b92915050565b600081519050919050565b600082825260208201905092915050565b60005b83811015611e53578082015181840152602081019050611e38565b60008484015250505050565b6000601f19601f8301169050919050565b6000611e7b82611e19565b611e858185611e24565b9350611e95818560208601611e35565b611e9e81611e5f565b840191505092915050565b60006020820190508181036000830152611ec38184611e70565b905092915050565b6000819050919050565b611ede81611ecb565b8114611ee957600080fd5b50565b600081359050611efb81611ed5565b92915050565b600060208284031215611f1757611f16611d54565b5b6000611f2584828501611eec565b91505092915050565b600073ffffffffffffffffffffffffffffffffffffffff82169050919050565b6000611f5982611f2e565b9050919050565b611f6981611f4e565b82525050565b6000602082019050611f846000830184611f60565b92915050565b611f9381611f4e565b8114611f9e57600080fd5b50565b600081359050611fb081611f8a565b92915050565b60008060408385031215611fcd57611fcc611d54565b5b6000611fdb85828601611fa1565b9250506020611fec85828601611eec565b9150509250929050565b60008060006060848603121561200f5761200e611d54565b5b600061201d86828701611fa1565b935050602061202e86828701611fa1565b925050604061203f86828701611eec565b9150509250925092565b600080fd5b600080fd5b7f4e487b7100000000000000000000000000000000000000000000000000000000600052604160045260246000fd5b61208b82611e5f565b810181811067ffffffffffffffff821117156120aa576120a9612053565b5b80604052505050565b60006120bd611d4a565b90506120c98282612082565b919050565b600067ffffffffffffffff8211156120e9576120e8612053565b5b6120f282611e5f565b9050602081019050919050565b82818337600083830152505050565b600061212161211c846120ce565b6120b3565b90508281526020810184848401111561213d5761213c61204e565b5b6121488482856120ff565b509392505050565b600082601f83011261216557612164612049565b5b813561217584826020860161210e565b91505092915050565b6000806040838503121561219557612194611d54565b5b60006121a385828601611fa1565b925050602083013567ffffffffffffffff8111156121c4576121c3611d59565b5b6121d085828601612150565b9150509250929050565b6121e381611ecb565b82525050565b60006020820190506121fe60008301846121da565b92915050565b60006020828403121561221a57612219611d54565b5b600061222884828501611fa1565b91505092915050565b60006020828403121561224757612246611d54565b5b600082013567ffffffffffffffff81111561226557612264611d59565b5b61227184828501612150565b91505092915050565b61228381611de3565b811461228e57600080fd5b50565b6000813590506122a08161227a565b92915050565b600080604083850312156122bd576122bc611d54565b5b60006122cb85828601611fa1565b92505060206122dc85828601612291565b9150509250929050565b600067ffffffffffffffff82111561230157612300612053565b5b61230a82611e5f565b9050602081019050919050565b600061232a612325846122e6565b6120b3565b9050828152602081018484840111156123465761234561204e565b5b6123518482856120ff565b509392505050565b600082601f83011261236e5761236d612049565b5b813561237e848260208601612317565b91505092915050565b600080600080608085870312156123a1576123a0611d54565b5b60006123af87828801611fa1565b94505060206123c087828801611fa1565b93505060406123d187828801611eec565b925050606085013567ffffffffffffffff8111156123f2576123f1611d59565b5b6123fe87828801612359565b91505092959194509250565b6000806040838503121561242157612420611d54565b5b600061242f85828601611fa1565b925050602061244085828601611fa1565b9150509250929050565b7f4e487b7100000000000000000000000000000000000000000000000000000000600052602260045260246000fd5b6000600282049050600182168061249157607f821691505b6020821081036124a4576124a361244a565b5b50919050565b60006060820190506124bf6000830186611f60565b6124cc60208301856121da565b6124d96040830184611f60565b949350505050565b600081905092915050565b60006124f782611e19565b61250181856124e1565b9350612511818560208601611e35565b80840191505092915050565b600061252982846124ec565b915081905092915050565b7f4e465420616c7265616479206d696e7465642100000000000000000000000000600082015250565b600061256a601383611e24565b915061257582612534565b602082019050919050565b600060208201905081810360008301526125998161255d565b9050919050565b7f4e65656420746f20706179207570210000000000000000000000000000000000600082015250565b60006125d6600f83611e24565b91506125e1826125a0565b602082019050919050565b60006020820190508181036000830152612605816125c9565b9050919050565b7f4e487b7100000000000000000000000000000000000000000000000000000000600052601160045260246000fd5b600061264682611ecb565b91507fffffffffffffffffffffffffffffffffffffffffffffffffffffffffffffffff82036126785761267761260c565b5b600182019050919050565b60008190508160005260206000209050919050565b60006020601f8301049050919050565b600082821b905092915050565b6000600883026126e57fffffffffffffffffffffffffffffffffffffffffffffffffffffffffffffffff826126a8565b6126ef86836126a8565b95508019841693508086168417925050509392505050565b6000819050919050565b600061272c61272761272284611ecb565b612707565b611ecb565b9050919050565b6000819050919050565b61274683612711565b61275a61275282612733565b8484546126b5565b825550505050565b600090565b61276f612762565b61277a81848461273d565b505050565b5b8181101561279e57612793600082612767565b600181019050612780565b5050565b601f8211156127e3576127b481612683565b6127bd84612698565b810160208510156127cc578190505b6127e06127d885612698565b83018261277f565b50505b505050565b600082821c905092915050565b6000612806600019846008026127e8565b1980831691505092915050565b600061281f83836127f5565b9150826002028217905092915050565b61283882611e19565b67ffffffffffffffff81111561285157612850612053565b5b61285b8254612479565b6128668282856127a2565b600060209050601f8311600181146128995760008415612887578287015190505b6128918582612813565b8655506128f9565b601f1984166128a786612683565b60005b828110156128cf578489015182556001820191506020850194506020810190506128aa565b868310156128ec57848901516128e8601f8916826127f5565b8355505b6001600288020188555050505b505050505050565b600081519050919050565b600082825260208201905092915050565b600061292882612901565b612932818561290c565b9350612942818560208601611e35565b61294b81611e5f565b840191505092915050565b600060808201905061296b6000830187611f60565b6129786020830186611f60565b61298560408301856121da565b8181036060830152612997818461291d565b905095945050505050565b6000815190506129b181611d8a565b92915050565b6000602082840312156129cd576129cc611d54565b5b60006129db848285016129a2565b91505092915050565b60006129f082856124ec565b91506129fc82846124ec565b91508190509392505050565b6000604082019050612a1d6000830185611f60565b612a2a60208301846121da565b9392505050565b7f4e487b7100000000000000000000000000000000000000000000000000000000600052601260045260246000fdfea2646970667358221220b7afc16d79db4f0d88697f2c62aae02e4e5b70df2cc9267c236c5142b3b52b4164736f6c63430008160033",
  "linkReferences": {},
  "deployedLinkReferences": {}
}